{
  "_format": "hh-sol-artifact-1",
  "contractName": "NFTMarketplace",
  "sourceName": "contracts/NFTMarketplace.sol",
  "abi": [
    {
      "inputs": [],
      "stateMutability": "nonpayable",
      "type": "constructor"
    },
    {
      "inputs": [
        {
          "internalType": "address",
          "name": "sender",
          "type": "address"
        },
        {
          "internalType": "uint256",
          "name": "tokenId",
          "type": "uint256"
        },
        {
          "internalType": "address",
          "name": "owner",
          "type": "address"
        }
      ],
      "name": "ERC721IncorrectOwner",
      "type": "error"
    },
    {
      "inputs": [
        {
          "internalType": "address",
          "name": "operator",
          "type": "address"
        },
        {
          "internalType": "uint256",
          "name": "tokenId",
          "type": "uint256"
        }
      ],
      "name": "ERC721InsufficientApproval",
      "type": "error"
    },
    {
      "inputs": [
        {
          "internalType": "address",
          "name": "approver",
          "type": "address"
        }
      ],
      "name": "ERC721InvalidApprover",
      "type": "error"
    },
    {
      "inputs": [
        {
          "internalType": "address",
          "name": "operator",
          "type": "address"
        }
      ],
      "name": "ERC721InvalidOperator",
      "type": "error"
    },
    {
      "inputs": [
        {
          "internalType": "address",
          "name": "owner",
          "type": "address"
        }
      ],
      "name": "ERC721InvalidOwner",
      "type": "error"
    },
    {
      "inputs": [
        {
          "internalType": "address",
          "name": "receiver",
          "type": "address"
        }
      ],
      "name": "ERC721InvalidReceiver",
      "type": "error"
    },
    {
      "inputs": [
        {
          "internalType": "address",
          "name": "sender",
          "type": "address"
        }
      ],
      "name": "ERC721InvalidSender",
      "type": "error"
    },
    {
      "inputs": [
        {
          "internalType": "uint256",
          "name": "tokenId",
          "type": "uint256"
        }
      ],
      "name": "ERC721NonexistentToken",
      "type": "error"
    },
    {
      "anonymous": false,
      "inputs": [
        {
          "indexed": true,
          "internalType": "address",
          "name": "owner",
          "type": "address"
        },
        {
          "indexed": true,
          "internalType": "address",
          "name": "approved",
          "type": "address"
        },
        {
          "indexed": true,
          "internalType": "uint256",
          "name": "tokenId",
          "type": "uint256"
        }
      ],
      "name": "Approval",
      "type": "event"
    },
    {
      "anonymous": false,
      "inputs": [
        {
          "indexed": true,
          "internalType": "address",
          "name": "owner",
          "type": "address"
        },
        {
          "indexed": true,
          "internalType": "address",
          "name": "operator",
          "type": "address"
        },
        {
          "indexed": false,
          "internalType": "bool",
          "name": "approved",
          "type": "bool"
        }
      ],
      "name": "ApprovalForAll",
      "type": "event"
    },
    {
      "anonymous": false,
      "inputs": [
        {
          "indexed": false,
          "internalType": "uint256",
          "name": "_fromTokenId",
          "type": "uint256"
        },
        {
          "indexed": false,
          "internalType": "uint256",
          "name": "_toTokenId",
          "type": "uint256"
        }
      ],
      "name": "BatchMetadataUpdate",
      "type": "event"
    },
    {
      "anonymous": false,
      "inputs": [
        {
          "indexed": false,
          "internalType": "uint256",
          "name": "_tokenId",
          "type": "uint256"
        }
      ],
      "name": "MetadataUpdate",
      "type": "event"
    },
    {
      "anonymous": false,
      "inputs": [
        {
          "indexed": true,
          "internalType": "address",
          "name": "from",
          "type": "address"
        },
        {
          "indexed": true,
          "internalType": "address",
          "name": "to",
          "type": "address"
        },
        {
          "indexed": true,
          "internalType": "uint256",
          "name": "tokenId",
          "type": "uint256"
        }
      ],
      "name": "Transfer",
      "type": "event"
    },
    {
      "anonymous": false,
      "inputs": [
        {
          "indexed": true,
          "internalType": "uint256",
          "name": "tokenId",
          "type": "uint256"
        },
        {
          "indexed": false,
          "internalType": "address",
          "name": "seller",
          "type": "address"
        },
        {
          "indexed": false,
          "internalType": "address",
          "name": "owner",
          "type": "address"
        },
        {
          "indexed": false,
          "internalType": "uint256",
          "name": "price",
          "type": "uint256"
        },
        {
          "indexed": false,
          "internalType": "bool",
          "name": "sold",
          "type": "bool"
        }
      ],
      "name": "idMarketItemCreated",
      "type": "event"
    },
    {
      "inputs": [
        {
          "internalType": "address",
          "name": "to",
          "type": "address"
        },
        {
          "internalType": "uint256",
          "name": "tokenId",
          "type": "uint256"
        }
      ],
      "name": "approve",
      "outputs": [],
      "stateMutability": "nonpayable",
      "type": "function"
    },
    {
      "inputs": [
        {
          "internalType": "address",
          "name": "owner",
          "type": "address"
        }
      ],
      "name": "balanceOf",
      "outputs": [
        {
          "internalType": "uint256",
          "name": "",
          "type": "uint256"
        }
      ],
      "stateMutability": "view",
      "type": "function"
    },
    {
      "inputs": [
        {
          "internalType": "uint256",
          "name": "tokenId",
          "type": "uint256"
        }
      ],
      "name": "createMarketSale",
      "outputs": [],
      "stateMutability": "payable",
      "type": "function"
    },
    {
      "inputs": [
        {
          "internalType": "string",
          "name": "tokenURI",
          "type": "string"
        },
        {
          "internalType": "uint256",
          "name": "price",
          "type": "uint256"
        }
      ],
      "name": "createToken",
      "outputs": [
        {
          "internalType": "uint256",
          "name": "",
          "type": "uint256"
        }
      ],
      "stateMutability": "payable",
      "type": "function"
    },
    {
      "inputs": [],
      "name": "fetchItemsListed",
      "outputs": [
        {
          "components": [
            {
              "internalType": "uint256",
              "name": "tokenId",
              "type": "uint256"
            },
            {
              "internalType": "address payable",
              "name": "seller",
              "type": "address"
            },
            {
              "internalType": "address payable",
              "name": "owner",
              "type": "address"
            },
            {
              "internalType": "uint256",
              "name": "price",
              "type": "uint256"
            },
            {
              "internalType": "bool",
              "name": "sold",
              "type": "bool"
            }
          ],
          "internalType": "struct NFTMarketplace.MarketItem[]",
          "name": "",
          "type": "tuple[]"
        }
      ],
      "stateMutability": "view",
      "type": "function"
    },
    {
      "inputs": [],
      "name": "fetchMarketItems",
      "outputs": [
        {
          "components": [
            {
              "internalType": "uint256",
              "name": "tokenId",
              "type": "uint256"
            },
            {
              "internalType": "address payable",
              "name": "seller",
              "type": "address"
            },
            {
              "internalType": "address payable",
              "name": "owner",
              "type": "address"
            },
            {
              "internalType": "uint256",
              "name": "price",
              "type": "uint256"
            },
            {
              "internalType": "bool",
              "name": "sold",
              "type": "bool"
            }
          ],
          "internalType": "struct NFTMarketplace.MarketItem[]",
          "name": "",
          "type": "tuple[]"
        }
      ],
      "stateMutability": "view",
      "type": "function"
    },
    {
      "inputs": [],
      "name": "fetchMyNFT",
      "outputs": [
        {
          "components": [
            {
              "internalType": "uint256",
              "name": "tokenId",
              "type": "uint256"
            },
            {
              "internalType": "address payable",
              "name": "seller",
              "type": "address"
            },
            {
              "internalType": "address payable",
              "name": "owner",
              "type": "address"
            },
            {
              "internalType": "uint256",
              "name": "price",
              "type": "uint256"
            },
            {
              "internalType": "bool",
              "name": "sold",
              "type": "bool"
            }
          ],
          "internalType": "struct NFTMarketplace.MarketItem[]",
          "name": "",
          "type": "tuple[]"
        }
      ],
      "stateMutability": "view",
      "type": "function"
    },
    {
      "inputs": [
        {
          "internalType": "uint256",
          "name": "tokenId",
          "type": "uint256"
        }
      ],
      "name": "getApproved",
      "outputs": [
        {
          "internalType": "address",
          "name": "",
          "type": "address"
        }
      ],
      "stateMutability": "view",
      "type": "function"
    },
    {
      "inputs": [],
      "name": "getListingPrice",
      "outputs": [
        {
          "internalType": "uint256",
          "name": "",
          "type": "uint256"
        }
      ],
      "stateMutability": "view",
      "type": "function"
    },
    {
      "inputs": [
        {
          "internalType": "address",
          "name": "owner",
          "type": "address"
        },
        {
          "internalType": "address",
          "name": "operator",
          "type": "address"
        }
      ],
      "name": "isApprovedForAll",
      "outputs": [
        {
          "internalType": "bool",
          "name": "",
          "type": "bool"
        }
      ],
      "stateMutability": "view",
      "type": "function"
    },
    {
      "inputs": [],
      "name": "listingPrice",
      "outputs": [
        {
          "internalType": "uint256",
          "name": "",
          "type": "uint256"
        }
      ],
      "stateMutability": "view",
      "type": "function"
    },
    {
      "inputs": [],
      "name": "name",
      "outputs": [
        {
          "internalType": "string",
          "name": "",
          "type": "string"
        }
      ],
      "stateMutability": "view",
      "type": "function"
    },
    {
      "inputs": [],
      "name": "owner",
      "outputs": [
        {
          "internalType": "address payable",
          "name": "",
          "type": "address"
        }
      ],
      "stateMutability": "view",
      "type": "function"
    },
    {
      "inputs": [
        {
          "internalType": "uint256",
          "name": "tokenId",
          "type": "uint256"
        }
      ],
      "name": "ownerOf",
      "outputs": [
        {
          "internalType": "address",
          "name": "",
          "type": "address"
        }
      ],
      "stateMutability": "view",
      "type": "function"
    },
    {
      "inputs": [
        {
          "internalType": "uint256",
          "name": "tokenId",
          "type": "uint256"
        },
        {
          "internalType": "uint256",
          "name": "price",
          "type": "uint256"
        }
      ],
      "name": "reSellToken",
      "outputs": [],
      "stateMutability": "payable",
      "type": "function"
    },
    {
      "inputs": [
        {
          "internalType": "address",
          "name": "from",
          "type": "address"
        },
        {
          "internalType": "address",
          "name": "to",
          "type": "address"
        },
        {
          "internalType": "uint256",
          "name": "tokenId",
          "type": "uint256"
        }
      ],
      "name": "safeTransferFrom",
      "outputs": [],
      "stateMutability": "nonpayable",
      "type": "function"
    },
    {
      "inputs": [
        {
          "internalType": "address",
          "name": "from",
          "type": "address"
        },
        {
          "internalType": "address",
          "name": "to",
          "type": "address"
        },
        {
          "internalType": "uint256",
          "name": "tokenId",
          "type": "uint256"
        },
        {
          "internalType": "bytes",
          "name": "data",
          "type": "bytes"
        }
      ],
      "name": "safeTransferFrom",
      "outputs": [],
      "stateMutability": "nonpayable",
      "type": "function"
    },
    {
      "inputs": [
        {
          "internalType": "address",
          "name": "operator",
          "type": "address"
        },
        {
          "internalType": "bool",
          "name": "approved",
          "type": "bool"
        }
      ],
      "name": "setApprovalForAll",
      "outputs": [],
      "stateMutability": "nonpayable",
      "type": "function"
    },
    {
      "inputs": [
        {
          "internalType": "bytes4",
          "name": "interfaceId",
          "type": "bytes4"
        }
      ],
      "name": "supportsInterface",
      "outputs": [
        {
          "internalType": "bool",
          "name": "",
          "type": "bool"
        }
      ],
      "stateMutability": "view",
      "type": "function"
    },
    {
      "inputs": [],
      "name": "symbol",
      "outputs": [
        {
          "internalType": "string",
          "name": "",
          "type": "string"
        }
      ],
      "stateMutability": "view",
      "type": "function"
    },
    {
      "inputs": [
        {
          "internalType": "uint256",
          "name": "tokenId",
          "type": "uint256"
        }
      ],
      "name": "tokenURI",
      "outputs": [
        {
          "internalType": "string",
          "name": "",
          "type": "string"
        }
      ],
      "stateMutability": "view",
      "type": "function"
    },
    {
      "inputs": [
        {
          "internalType": "address",
          "name": "from",
          "type": "address"
        },
        {
          "internalType": "address",
          "name": "to",
          "type": "address"
        },
        {
          "internalType": "uint256",
          "name": "tokenId",
          "type": "uint256"
        }
      ],
      "name": "transferFrom",
      "outputs": [],
      "stateMutability": "nonpayable",
      "type": "function"
    },
    {
      "inputs": [
        {
          "internalType": "uint256",
          "name": "_ListingPrice",
          "type": "uint256"
        }
      ],
      "name": "updateListingPrice",
      "outputs": [],
      "stateMutability": "payable",
      "type": "function"
    }
  ],
  "bytecode": "0x60806040526608e1bc9bf0400060095534801561001b57600080fd5b506040518060400160405280600e81526020017f544f444159205448452047414d450000000000000000000000000000000000008152506040518060400160405280600581526020017f4d594e465400000000000000000000000000000000000000000000000000000081525081600090816100979190610325565b5080600190816100a79190610325565b5050503373ffffffffffffffffffffffffffffffffffffffff16600a60009054906101000a905050506103f7565b600081519050919050565b7f4e487b7100000000000000000000000000000000000000000000000000000000600052604160045260246000fd5b7f4e487b7100000000000000000000000000000000000000000000000000000000600052602260045260246000fd5b6000600282049050600182168061015657607f821691505b6020821081036101695761016861010f565b5b50919050565b60008190508160005260206000209050919050565b60006020601f8301049050919050565b600082821b905092915050565b6000600883026101d17fffffffffffffffffffffffffffffffffffffffffffffffffffffffffffffffff82610194565b6101db8683610194565b95508019841693508086168417925050509392505050565b6000819050919050565b6000819050919050565b600061022261021d610218846101f3565b6101fd565b6101f3565b9050919050565b6000819050919050565b61023c83610207565b61025061024882610229565b8484546101a1565b825550505050565b600090565b610265610258565b610270818484610233565b505050565b5b818110156102945761028960008261025d565b600181019050610276565b5050565b601f8211156102d9576102aa8161016f565b6102b384610184565b810160208510156102c2578190505b6102d66102ce85610184565b830182610275565b50505b505050565b600082821c905092915050565b60006102fc600019846008026102de565b1980831691505092915050565b600061031583836102eb565b9150826002028217905092915050565b61032e826100d5565b67ffffffffffffffff811115610347576103466100e0565b5b610351825461013e565b61035c828285610298565b600060209050601f83116001811461038f576000841561037d578287015190505b6103878582610309565b8655506103ef565b601f19841661039d8661016f565b60005b828110156103c5578489015182556001820191506020850194506020810190506103a0565b868310156103e257848901516103de601f8916826102eb565b8355505b6001600288020188555050505b505050505050565b613c99806104066000396000f3fe6080604052600436106101405760003560e01c806372b3b620116100b6578063b88d4fde1161006f578063b88d4fde14610447578063be9af53614610470578063c18763f71461048c578063c78f19f9146104b7578063c87b56dd146104e2578063e985e9c51461051f57610140565b806372b3b6201461036057806385535b25146103905780638da5cb5b146103ac57806395d89b41146103d7578063a22cb46514610402578063ae677aa31461042b57610140565b806312e855851161010857806312e855851461023e57806323b872dd1461026957806342842e0e1461029257806345f8fa80146102bb5780636352211e146102e657806370a082311461032357610140565b806301ffc9a71461014557806306fdde0314610182578063081812fc146101ad578063095ea7b3146101ea5780630f08efe014610213575b600080fd5b34801561015157600080fd5b5061016c60048036038101906101679190612bab565b61055c565b6040516101799190612bf3565b60405180910390f35b34801561018e57600080fd5b506101976105bd565b6040516101a49190612c9e565b60405180910390f35b3480156101b957600080fd5b506101d460048036038101906101cf9190612cf6565b61064f565b6040516101e19190612d64565b60405180910390f35b3480156101f657600080fd5b50610211600480360381019061020c9190612dab565b61066b565b005b34801561021f57600080fd5b50610228610681565b6040516102359190612f41565b60405180910390f35b34801561024a57600080fd5b506102536108cd565b6040516102609190612f72565b60405180910390f35b34801561027557600080fd5b50610290600480360381019061028b9190612f8d565b6108d7565b005b34801561029e57600080fd5b506102b960048036038101906102b49190612f8d565b6109d9565b005b3480156102c757600080fd5b506102d06109f9565b6040516102dd9190612f41565b60405180910390f35b3480156102f257600080fd5b5061030d60048036038101906103089190612cf6565b610ccb565b60405161031a9190612d64565b60405180910390f35b34801561032f57600080fd5b5061034a60048036038101906103459190612fe0565b610cdd565b6040516103579190612f72565b60405180910390f35b61037a60048036038101906103759190613142565b610d97565b6040516103879190612f72565b60405180910390f35b6103aa60048036038101906103a5919061319e565b610dd9565b005b3480156103b857600080fd5b506103c1610fce565b6040516103ce91906131ed565b60405180910390f35b3480156103e357600080fd5b506103ec610ff4565b6040516103f99190612c9e565b60405180910390f35b34801561040e57600080fd5b5061042960048036038101906104249190613234565b611086565b005b61044560048036038101906104409190612cf6565b61109c565b005b34801561045357600080fd5b5061046e60048036038101906104699190613315565b611136565b005b61048a60048036038101906104859190612cf6565b611153565b005b34801561049857600080fd5b506104a161138b565b6040516104ae9190612f41565b60405180910390f35b3480156104c357600080fd5b506104cc61165d565b6040516104d99190612f72565b60405180910390f35b3480156104ee57600080fd5b5061050960048036038101906105049190612cf6565b611663565b6040516105169190612c9e565b60405180910390f35b34801561052b57600080fd5b5061054660048036038101906105419190613398565b611776565b6040516105539190612bf3565b60405180910390f35b6000634906490660e01b7bffffffffffffffffffffffffffffffffffffffffffffffffffffffff1916827bffffffffffffffffffffffffffffffffffffffffffffffffffffffff191614806105b657506105b58261180a565b5b9050919050565b6060600080546105cc90613407565b80601f01602080910402602001604051908101604052809291908181526020018280546105f890613407565b80156106455780601f1061061a57610100808354040283529160200191610645565b820191906000526020600020905b81548152906001019060200180831161062857829003601f168201915b5050505050905090565b600061065a826118ec565b5061066482611974565b9050919050565b61067d82826106786119b1565b6119b9565b5050565b6060600061068f60076119cb565b9050600061069d60086119cb565b826106a89190613467565b90506000808267ffffffffffffffff8111156106c7576106c6613017565b5b60405190808252806020026020018201604052801561070057816020015b6106ed612ae2565b8152602001906001900390816106e55790505b50905060005b848110156108c2573073ffffffffffffffffffffffffffffffffffffffff16600b6000600184610736919061349b565b815260200190815260200160002060020160009054906101000a900473ffffffffffffffffffffffffffffffffffffffff1673ffffffffffffffffffffffffffffffffffffffff16036108b557600b6000600183610794919061349b565b81526020019081526020016000206040518060a0016040529081600082015481526020016001820160009054906101000a900473ffffffffffffffffffffffffffffffffffffffff1673ffffffffffffffffffffffffffffffffffffffff1673ffffffffffffffffffffffffffffffffffffffff1681526020016002820160009054906101000a900473ffffffffffffffffffffffffffffffffffffffff1673ffffffffffffffffffffffffffffffffffffffff1673ffffffffffffffffffffffffffffffffffffffff168152602001600382015481526020016004820160009054906101000a900460ff16151515158152505082848151811061089b5761089a6134cf565b5b602002602001018190525082806108b1906134fe565b9350505b8080600101915050610706565b508094505050505090565b6000600954905090565b600073ffffffffffffffffffffffffffffffffffffffff168273ffffffffffffffffffffffffffffffffffffffff16036109495760006040517f64a0ae920000000000000000000000000000000000000000000000000000000081526004016109409190612d64565b60405180910390fd5b600061095d83836109586119b1565b6119d9565b90508373ffffffffffffffffffffffffffffffffffffffff168173ffffffffffffffffffffffffffffffffffffffff16146109d3578382826040517f64283d7b0000000000000000000000000000000000000000000000000000000081526004016109ca93929190613546565b60405180910390fd5b50505050565b6109f483838360405180602001604052806000815250611136565b505050565b60606000610a0760076119cb565b905060008060005b83811015610aa8573373ffffffffffffffffffffffffffffffffffffffff16600b6000600184610a3f919061349b565b815260200190815260200160002060010160009054906101000a900473ffffffffffffffffffffffffffffffffffffffff1673ffffffffffffffffffffffffffffffffffffffff1603610a9b578280610a97906134fe565b9350505b8080600101915050610a0f565b5060008267ffffffffffffffff811115610ac557610ac4613017565b5b604051908082528060200260200182016040528015610afe57816020015b610aeb612ae2565b815260200190600190039081610ae35790505b50905060005b84811015610cc0573373ffffffffffffffffffffffffffffffffffffffff16600b6000600184610b34919061349b565b815260200190815260200160002060010160009054906101000a900473ffffffffffffffffffffffffffffffffffffffff1673ffffffffffffffffffffffffffffffffffffffff1603610cb357600b6000600183610b92919061349b565b81526020019081526020016000206040518060a0016040529081600082015481526020016001820160009054906101000a900473ffffffffffffffffffffffffffffffffffffffff1673ffffffffffffffffffffffffffffffffffffffff1673ffffffffffffffffffffffffffffffffffffffff1681526020016002820160009054906101000a900473ffffffffffffffffffffffffffffffffffffffff1673ffffffffffffffffffffffffffffffffffffffff1673ffffffffffffffffffffffffffffffffffffffff168152602001600382015481526020016004820160009054906101000a900460ff161515151581525050828481518110610c9957610c986134cf565b5b60200260200101819052508280610caf906134fe565b9350505b8080600101915050610b04565b508094505050505090565b6000610cd6826118ec565b9050919050565b60008073ffffffffffffffffffffffffffffffffffffffff168273ffffffffffffffffffffffffffffffffffffffff1603610d505760006040517f89c62b64000000000000000000000000000000000000000000000000000000008152600401610d479190612d64565b60405180910390fd5b600360008373ffffffffffffffffffffffffffffffffffffffff1673ffffffffffffffffffffffffffffffffffffffff168152602001908152602001600020549050919050565b6000610da36007611bf3565b6000610daf60076119cb565b9050610dbb3382611c09565b610dc58185611d02565b610dcf8184611d5e565b8091505092915050565b3373ffffffffffffffffffffffffffffffffffffffff16600b600084815260200190815260200160002060020160009054906101000a900473ffffffffffffffffffffffffffffffffffffffff1673ffffffffffffffffffffffffffffffffffffffff1614610e7d576040517f08c379a0000000000000000000000000000000000000000000000000000000008152600401610e74906135c9565b60405180910390fd5b6009543414610ec1576040517f08c379a0000000000000000000000000000000000000000000000000000000008152600401610eb890613635565b60405180910390fd5b6000600b600084815260200190815260200160002060040160006101000a81548160ff02191690831515021790555080600b60008481526020019081526020016000206003018190555033600b600084815260200190815260200160002060010160006101000a81548173ffffffffffffffffffffffffffffffffffffffff021916908373ffffffffffffffffffffffffffffffffffffffff16021790555030600b600084815260200190815260200160002060020160006101000a81548173ffffffffffffffffffffffffffffffffffffffff021916908373ffffffffffffffffffffffffffffffffffffffff160217905550610fbf6008611f61565b610fca333084611fbd565b5050565b600a60009054906101000a900473ffffffffffffffffffffffffffffffffffffffff1681565b60606001805461100390613407565b80601f016020809104026020016040519081016040528092919081815260200182805461102f90613407565b801561107c5780601f106110515761010080835404028352916020019161107c565b820191906000526020600020905b81548152906001019060200180831161105f57829003601f168201915b5050505050905090565b6110986110916119b1565b838361212a565b5050565b600a60009054906101000a900473ffffffffffffffffffffffffffffffffffffffff1673ffffffffffffffffffffffffffffffffffffffff163373ffffffffffffffffffffffffffffffffffffffff161461112c576040517f08c379a0000000000000000000000000000000000000000000000000000000008152600401611123906136a1565b60405180910390fd5b8060098190555050565b6111418484846108d7565b61114d84848484612299565b50505050565b6000600b60008381526020019081526020016000206003015490508034146111b0576040517f08c379a00000000000000000000000000000000000000000000000000000000081526004016111a79061370d565b60405180910390fd5b33600b600084815260200190815260200160002060020160006101000a81548173ffffffffffffffffffffffffffffffffffffffff021916908373ffffffffffffffffffffffffffffffffffffffff1602179055506001600b600084815260200190815260200160002060040160006101000a81548160ff0219169083151502179055506000600b600084815260200190815260200160002060010160006101000a81548173ffffffffffffffffffffffffffffffffffffffff021916908373ffffffffffffffffffffffffffffffffffffffff1602179055506112946008611bf3565b61129f303384611fbd565b600a60009054906101000a900473ffffffffffffffffffffffffffffffffffffffff1673ffffffffffffffffffffffffffffffffffffffff166108fc6009549081150290604051600060405180830381858888f19350505050158015611309573d6000803e3d6000fd5b50600b600083815260200190815260200160002060010160009054906101000a900473ffffffffffffffffffffffffffffffffffffffff1673ffffffffffffffffffffffffffffffffffffffff166108fc349081150290604051600060405180830381858888f19350505050158015611386573d6000803e3d6000fd5b505050565b6060600061139960076119cb565b905060008060005b8381101561143a573373ffffffffffffffffffffffffffffffffffffffff16600b60006001846113d1919061349b565b815260200190815260200160002060020160009054906101000a900473ffffffffffffffffffffffffffffffffffffffff1673ffffffffffffffffffffffffffffffffffffffff160361142d578280611429906134fe565b9350505b80806001019150506113a1565b5060008267ffffffffffffffff81111561145757611456613017565b5b60405190808252806020026020018201604052801561149057816020015b61147d612ae2565b8152602001906001900390816114755790505b50905060005b84811015611652573373ffffffffffffffffffffffffffffffffffffffff16600b60006001846114c6919061349b565b815260200190815260200160002060020160009054906101000a900473ffffffffffffffffffffffffffffffffffffffff1673ffffffffffffffffffffffffffffffffffffffff160361164557600b6000600183611524919061349b565b81526020019081526020016000206040518060a0016040529081600082015481526020016001820160009054906101000a900473ffffffffffffffffffffffffffffffffffffffff1673ffffffffffffffffffffffffffffffffffffffff1673ffffffffffffffffffffffffffffffffffffffff1681526020016002820160009054906101000a900473ffffffffffffffffffffffffffffffffffffffff1673ffffffffffffffffffffffffffffffffffffffff1673ffffffffffffffffffffffffffffffffffffffff168152602001600382015481526020016004820160009054906101000a900460ff16151515158152505082848151811061162b5761162a6134cf565b5b60200260200101819052508280611641906134fe565b9350505b8080600101915050611496565b508094505050505090565b60095481565b606061166e826118ec565b50600060066000848152602001908152602001600020805461168f90613407565b80601f01602080910402602001604051908101604052809291908181526020018280546116bb90613407565b80156117085780601f106116dd57610100808354040283529160200191611708565b820191906000526020600020905b8154815290600101906020018083116116eb57829003601f168201915b505050505090506000611719612450565b9050600081510361172e578192505050611771565b60008251111561176357808260405160200161174b929190613769565b60405160208183030381529060405292505050611771565b61176c84612467565b925050505b919050565b6000600560008473ffffffffffffffffffffffffffffffffffffffff1673ffffffffffffffffffffffffffffffffffffffff16815260200190815260200160002060008373ffffffffffffffffffffffffffffffffffffffff1673ffffffffffffffffffffffffffffffffffffffff16815260200190815260200160002060009054906101000a900460ff16905092915050565b60007f80ac58cd000000000000000000000000000000000000000000000000000000007bffffffffffffffffffffffffffffffffffffffffffffffffffffffff1916827bffffffffffffffffffffffffffffffffffffffffffffffffffffffff191614806118d557507f5b5e139f000000000000000000000000000000000000000000000000000000007bffffffffffffffffffffffffffffffffffffffffffffffffffffffff1916827bffffffffffffffffffffffffffffffffffffffffffffffffffffffff1916145b806118e557506118e4826124d0565b5b9050919050565b6000806118f88361253a565b9050600073ffffffffffffffffffffffffffffffffffffffff168173ffffffffffffffffffffffffffffffffffffffff160361196b57826040517f7e2732890000000000000000000000000000000000000000000000000000000081526004016119629190612f72565b60405180910390fd5b80915050919050565b60006004600083815260200190815260200160002060009054906101000a900473ffffffffffffffffffffffffffffffffffffffff169050919050565b600033905090565b6119c68383836001612577565b505050565b600081600001549050919050565b6000806119e58461253a565b9050600073ffffffffffffffffffffffffffffffffffffffff168373ffffffffffffffffffffffffffffffffffffffff1614611a2757611a2681848661273c565b5b600073ffffffffffffffffffffffffffffffffffffffff168173ffffffffffffffffffffffffffffffffffffffff1614611ab857611a69600085600080612577565b6001600360008373ffffffffffffffffffffffffffffffffffffffff1673ffffffffffffffffffffffffffffffffffffffff168152602001908152602001600020600082825403925050819055505b600073ffffffffffffffffffffffffffffffffffffffff168573ffffffffffffffffffffffffffffffffffffffff1614611b3b576001600360008773ffffffffffffffffffffffffffffffffffffffff1673ffffffffffffffffffffffffffffffffffffffff168152602001908152602001600020600082825401925050819055505b846002600086815260200190815260200160002060006101000a81548173ffffffffffffffffffffffffffffffffffffffff021916908373ffffffffffffffffffffffffffffffffffffffff160217905550838573ffffffffffffffffffffffffffffffffffffffff168273ffffffffffffffffffffffffffffffffffffffff167fddf252ad1be2c89b69c2b068fc378daa952ba7f163c4a11628f55a4df523b3ef60405160405180910390a4809150509392505050565b6001816000016000828254019250508190555050565b600073ffffffffffffffffffffffffffffffffffffffff168273ffffffffffffffffffffffffffffffffffffffff1603611c7b5760006040517f64a0ae92000000000000000000000000000000000000000000000000000000008152600401611c729190612d64565b60405180910390fd5b6000611c89838360006119d9565b9050600073ffffffffffffffffffffffffffffffffffffffff168173ffffffffffffffffffffffffffffffffffffffff1614611cfd5760006040517f73c6ac6e000000000000000000000000000000000000000000000000000000008152600401611cf49190612d64565b60405180910390fd5b505050565b80600660008481526020019081526020016000209081611d229190613939565b507ff8e1a15aba9398e019f0b49df1a4fde98ee17ae345cb5f6b5e2c27f5033e8ce782604051611d529190612f72565b60405180910390a15050565b60008111611da1576040517f08c379a0000000000000000000000000000000000000000000000000000000008152600401611d9890613a57565b60405180910390fd5b6009543414611de5576040517f08c379a0000000000000000000000000000000000000000000000000000000008152600401611ddc90613635565b60405180910390fd5b6040518060a001604052808381526020013373ffffffffffffffffffffffffffffffffffffffff1681526020013073ffffffffffffffffffffffffffffffffffffffff16815260200182815260200160001515815250600b60008481526020019081526020016000206000820151816000015560208201518160010160006101000a81548173ffffffffffffffffffffffffffffffffffffffff021916908373ffffffffffffffffffffffffffffffffffffffff16021790555060408201518160020160006101000a81548173ffffffffffffffffffffffffffffffffffffffff021916908373ffffffffffffffffffffffffffffffffffffffff1602179055506060820151816003015560808201518160040160006101000a81548160ff021916908315150217905550905050611f1e333084611fbd565b817fdebdb32cb5230ab727c9c361b16fdb2015df225c10e6a3e7f60ecd5dc5be45163330846000604051611f559493929190613a77565b60405180910390a25050565b60008160000154905060008111611fad576040517f08c379a0000000000000000000000000000000000000000000000000000000008152600401611fa490613b08565b60405180910390fd5b6001810382600001819055505050565b600073ffffffffffffffffffffffffffffffffffffffff168273ffffffffffffffffffffffffffffffffffffffff160361202f5760006040517f64a0ae920000000000000000000000000000000000000000000000000000000081526004016120269190612d64565b60405180910390fd5b600061203d838360006119d9565b9050600073ffffffffffffffffffffffffffffffffffffffff168173ffffffffffffffffffffffffffffffffffffffff16036120b057816040517f7e2732890000000000000000000000000000000000000000000000000000000081526004016120a79190612f72565b60405180910390fd5b8373ffffffffffffffffffffffffffffffffffffffff168173ffffffffffffffffffffffffffffffffffffffff1614612124578382826040517f64283d7b00000000000000000000000000000000000000000000000000000000815260040161211b93929190613546565b60405180910390fd5b50505050565b600073ffffffffffffffffffffffffffffffffffffffff168273ffffffffffffffffffffffffffffffffffffffff160361219b57816040517f5b08ba180000000000000000000000000000000000000000000000000000000081526004016121929190612d64565b60405180910390fd5b80600560008573ffffffffffffffffffffffffffffffffffffffff1673ffffffffffffffffffffffffffffffffffffffff16815260200190815260200160002060008473ffffffffffffffffffffffffffffffffffffffff1673ffffffffffffffffffffffffffffffffffffffff16815260200190815260200160002060006101000a81548160ff0219169083151502179055508173ffffffffffffffffffffffffffffffffffffffff168373ffffffffffffffffffffffffffffffffffffffff167f17307eab39ab6107e8899845ad3d59bd9653f200f220920489ca2b5937696c318360405161228c9190612bf3565b60405180910390a3505050565b60008373ffffffffffffffffffffffffffffffffffffffff163b111561244a578273ffffffffffffffffffffffffffffffffffffffff1663150b7a026122dd6119b1565b8685856040518563ffffffff1660e01b81526004016122ff9493929190613b7d565b6020604051808303816000875af192505050801561233b57506040513d601f19601f820116820180604052508101906123389190613bde565b60015b6123bf573d806000811461236b576040519150601f19603f3d011682016040523d82523d6000602084013e612370565b606091505b5060008151036123b757836040517f64a0ae920000000000000000000000000000000000000000000000000000000081526004016123ae9190612d64565b60405180910390fd5b805181602001fd5b63150b7a0260e01b7bffffffffffffffffffffffffffffffffffffffffffffffffffffffff1916817bffffffffffffffffffffffffffffffffffffffffffffffffffffffff19161461244857836040517f64a0ae9200000000000000000000000000000000000000000000000000000000815260040161243f9190612d64565b60405180910390fd5b505b50505050565b606060405180602001604052806000815250905090565b6060612472826118ec565b50600061247d612450565b9050600081511161249d57604051806020016040528060008152506124c8565b806124a784612800565b6040516020016124b8929190613769565b6040516020818303038152906040525b915050919050565b60007f01ffc9a7000000000000000000000000000000000000000000000000000000007bffffffffffffffffffffffffffffffffffffffffffffffffffffffff1916827bffffffffffffffffffffffffffffffffffffffffffffffffffffffff1916149050919050565b60006002600083815260200190815260200160002060009054906101000a900473ffffffffffffffffffffffffffffffffffffffff169050919050565b80806125b05750600073ffffffffffffffffffffffffffffffffffffffff168273ffffffffffffffffffffffffffffffffffffffff1614155b156126e45760006125c0846118ec565b9050600073ffffffffffffffffffffffffffffffffffffffff168373ffffffffffffffffffffffffffffffffffffffff161415801561262b57508273ffffffffffffffffffffffffffffffffffffffff168173ffffffffffffffffffffffffffffffffffffffff1614155b801561263e575061263c8184611776565b155b1561268057826040517fa9fbf51f0000000000000000000000000000000000000000000000000000000081526004016126779190612d64565b60405180910390fd5b81156126e257838573ffffffffffffffffffffffffffffffffffffffff168273ffffffffffffffffffffffffffffffffffffffff167f8c5be1e5ebec7d5bd14f71427d1e84f3dd0314c0f7b2291e5b200ac8c7c3b92560405160405180910390a45b505b836004600085815260200190815260200160002060006101000a81548173ffffffffffffffffffffffffffffffffffffffff021916908373ffffffffffffffffffffffffffffffffffffffff16021790555050505050565b6127478383836128ce565b6127fb57600073ffffffffffffffffffffffffffffffffffffffff168373ffffffffffffffffffffffffffffffffffffffff16036127bc57806040517f7e2732890000000000000000000000000000000000000000000000000000000081526004016127b39190612f72565b60405180910390fd5b81816040517f177e802f0000000000000000000000000000000000000000000000000000000081526004016127f2929190613c0b565b60405180910390fd5b505050565b60606000600161280f8461298f565b01905060008167ffffffffffffffff81111561282e5761282d613017565b5b6040519080825280601f01601f1916602001820160405280156128605781602001600182028036833780820191505090505b509050600082602001820190505b6001156128c3578080600190039150507f3031323334353637383961626364656600000000000000000000000000000000600a86061a8153600a85816128b7576128b6613c34565b5b0494506000850361286e575b819350505050919050565b60008073ffffffffffffffffffffffffffffffffffffffff168373ffffffffffffffffffffffffffffffffffffffff161415801561298657508273ffffffffffffffffffffffffffffffffffffffff168473ffffffffffffffffffffffffffffffffffffffff16148061294757506129468484611776565b5b8061298557508273ffffffffffffffffffffffffffffffffffffffff1661296d83611974565b73ffffffffffffffffffffffffffffffffffffffff16145b5b90509392505050565b600080600090507a184f03e93ff9f4daa797ed6e38ed64bf6a1f01000000000000000083106129ed577a184f03e93ff9f4daa797ed6e38ed64bf6a1f01000000000000000083816129e3576129e2613c34565b5b0492506040810190505b6d04ee2d6d415b85acef81000000008310612a2a576d04ee2d6d415b85acef81000000008381612a2057612a1f613c34565b5b0492506020810190505b662386f26fc100008310612a5957662386f26fc100008381612a4f57612a4e613c34565b5b0492506010810190505b6305f5e1008310612a82576305f5e1008381612a7857612a77613c34565b5b0492506008810190505b6127108310612aa7576127108381612a9d57612a9c613c34565b5b0492506004810190505b60648310612aca5760648381612ac057612abf613c34565b5b0492506002810190505b600a8310612ad9576001810190505b80915050919050565b6040518060a0016040528060008152602001600073ffffffffffffffffffffffffffffffffffffffff168152602001600073ffffffffffffffffffffffffffffffffffffffff168152602001600081526020016000151581525090565b6000604051905090565b600080fd5b600080fd5b60007fffffffff0000000000000000000000000000000000000000000000000000000082169050919050565b612b8881612b53565b8114612b9357600080fd5b50565b600081359050612ba581612b7f565b92915050565b600060208284031215612bc157612bc0612b49565b5b6000612bcf84828501612b96565b91505092915050565b60008115159050919050565b612bed81612bd8565b82525050565b6000602082019050612c086000830184612be4565b92915050565b600081519050919050565b600082825260208201905092915050565b60005b83811015612c48578082015181840152602081019050612c2d565b60008484015250505050565b6000601f19601f8301169050919050565b6000612c7082612c0e565b612c7a8185612c19565b9350612c8a818560208601612c2a565b612c9381612c54565b840191505092915050565b60006020820190508181036000830152612cb88184612c65565b905092915050565b6000819050919050565b612cd381612cc0565b8114612cde57600080fd5b50565b600081359050612cf081612cca565b92915050565b600060208284031215612d0c57612d0b612b49565b5b6000612d1a84828501612ce1565b91505092915050565b600073ffffffffffffffffffffffffffffffffffffffff82169050919050565b6000612d4e82612d23565b9050919050565b612d5e81612d43565b82525050565b6000602082019050612d796000830184612d55565b92915050565b612d8881612d43565b8114612d9357600080fd5b50565b600081359050612da581612d7f565b92915050565b60008060408385031215612dc257612dc1612b49565b5b6000612dd085828601612d96565b9250506020612de185828601612ce1565b9150509250929050565b600081519050919050565b600082825260208201905092915050565b6000819050602082019050919050565b612e2081612cc0565b82525050565b6000612e3182612d23565b9050919050565b612e4181612e26565b82525050565b612e5081612bd8565b82525050565b60a082016000820151612e6c6000850182612e17565b506020820151612e7f6020850182612e38565b506040820151612e926040850182612e38565b506060820151612ea56060850182612e17565b506080820151612eb86080850182612e47565b50505050565b6000612eca8383612e56565b60a08301905092915050565b6000602082019050919050565b6000612eee82612deb565b612ef88185612df6565b9350612f0383612e07565b8060005b83811015612f34578151612f1b8882612ebe565b9750612f2683612ed6565b925050600181019050612f07565b5085935050505092915050565b60006020820190508181036000830152612f5b8184612ee3565b905092915050565b612f6c81612cc0565b82525050565b6000602082019050612f876000830184612f63565b92915050565b600080600060608486031215612fa657612fa5612b49565b5b6000612fb486828701612d96565b9350506020612fc586828701612d96565b9250506040612fd686828701612ce1565b9150509250925092565b600060208284031215612ff657612ff5612b49565b5b600061300484828501612d96565b91505092915050565b600080fd5b600080fd5b7f4e487b7100000000000000000000000000000000000000000000000000000000600052604160045260246000fd5b61304f82612c54565b810181811067ffffffffffffffff8211171561306e5761306d613017565b5b80604052505050565b6000613081612b3f565b905061308d8282613046565b919050565b600067ffffffffffffffff8211156130ad576130ac613017565b5b6130b682612c54565b9050602081019050919050565b82818337600083830152505050565b60006130e56130e084613092565b613077565b90508281526020810184848401111561310157613100613012565b5b61310c8482856130c3565b509392505050565b600082601f8301126131295761312861300d565b5b81356131398482602086016130d2565b91505092915050565b6000806040838503121561315957613158612b49565b5b600083013567ffffffffffffffff81111561317757613176612b4e565b5b61318385828601613114565b925050602061319485828601612ce1565b9150509250929050565b600080604083850312156131b5576131b4612b49565b5b60006131c385828601612ce1565b92505060206131d485828601612ce1565b9150509250929050565b6131e781612e26565b82525050565b600060208201905061320260008301846131de565b92915050565b61321181612bd8565b811461321c57600080fd5b50565b60008135905061322e81613208565b92915050565b6000806040838503121561324b5761324a612b49565b5b600061325985828601612d96565b925050602061326a8582860161321f565b9150509250929050565b600067ffffffffffffffff82111561328f5761328e613017565b5b61329882612c54565b9050602081019050919050565b60006132b86132b384613274565b613077565b9050828152602081018484840111156132d4576132d3613012565b5b6132df8482856130c3565b509392505050565b600082601f8301126132fc576132fb61300d565b5b813561330c8482602086016132a5565b91505092915050565b6000806000806080858703121561332f5761332e612b49565b5b600061333d87828801612d96565b945050602061334e87828801612d96565b935050604061335f87828801612ce1565b925050606085013567ffffffffffffffff8111156133805761337f612b4e565b5b61338c878288016132e7565b91505092959194509250565b600080604083850312156133af576133ae612b49565b5b60006133bd85828601612d96565b92505060206133ce85828601612d96565b9150509250929050565b7f4e487b7100000000000000000000000000000000000000000000000000000000600052602260045260246000fd5b6000600282049050600182168061341f57607f821691505b602082108103613432576134316133d8565b5b50919050565b7f4e487b7100000000000000000000000000000000000000000000000000000000600052601160045260246000fd5b600061347282612cc0565b915061347d83612cc0565b925082820390508181111561349557613494613438565b5b92915050565b60006134a682612cc0565b91506134b183612cc0565b92508282019050808211156134c9576134c8613438565b5b92915050565b7f4e487b7100000000000000000000000000000000000000000000000000000000600052603260045260246000fd5b600061350982612cc0565b91507fffffffffffffffffffffffffffffffffffffffffffffffffffffffffffffffff820361353b5761353a613438565b5b600182019050919050565b600060608201905061355b6000830186612d55565b6135686020830185612f63565b6135756040830184612d55565b949350505050565b7f4e6f74206f776e65720000000000000000000000000000000000000000000000600082015250565b60006135b3600983612c19565b91506135be8261357d565b602082019050919050565b600060208201905081810360008301526135e2816135a6565b9050919050565b7f4d75737420706179206c697374696e6720666565000000000000000000000000600082015250565b600061361f601483612c19565b915061362a826135e9565b602082019050919050565b6000602082019050818103600083015261364e81613612565b9050919050565b7f4f6e6c79206f776e657220616c6c6f7765640000000000000000000000000000600082015250565b600061368b601283612c19565b915061369682613655565b602082019050919050565b600060208201905081810360008301526136ba8161367e565b9050919050565b7f496e636f72726563742070726963652070616964000000000000000000000000600082015250565b60006136f7601483612c19565b9150613702826136c1565b602082019050919050565b60006020820190508181036000830152613726816136ea565b9050919050565b600081905092915050565b600061374382612c0e565b61374d818561372d565b935061375d818560208601612c2a565b80840191505092915050565b60006137758285613738565b91506137818284613738565b91508190509392505050565b60008190508160005260206000209050919050565b60006020601f8301049050919050565b600082821b905092915050565b6000600883026137ef7fffffffffffffffffffffffffffffffffffffffffffffffffffffffffffffffff826137b2565b6137f986836137b2565b95508019841693508086168417925050509392505050565b6000819050919050565b600061383661383161382c84612cc0565b613811565b612cc0565b9050919050565b6000819050919050565b6138508361381b565b61386461385c8261383d565b8484546137bf565b825550505050565b600090565b61387961386c565b613884818484613847565b505050565b5b818110156138a85761389d600082613871565b60018101905061388a565b5050565b601f8211156138ed576138be8161378d565b6138c7846137a2565b810160208510156138d6578190505b6138ea6138e2856137a2565b830182613889565b50505b505050565b600082821c905092915050565b6000613910600019846008026138f2565b1980831691505092915050565b600061392983836138ff565b9150826002028217905092915050565b61394282612c0e565b67ffffffffffffffff81111561395b5761395a613017565b5b6139658254613407565b6139708282856138ac565b600060209050601f8311600181146139a35760008415613991578287015190505b61399b858261391d565b865550613a03565b601f1984166139b18661378d565b60005b828110156139d9578489015182556001820191506020850194506020810190506139b4565b868310156139f657848901516139f2601f8916826138ff565b8355505b6001600288020188555050505b505050505050565b7f5072696365206d757374206265203e2030000000000000000000000000000000600082015250565b6000613a41601183612c19565b9150613a4c82613a0b565b602082019050919050565b60006020820190508181036000830152613a7081613a34565b9050919050565b6000608082019050613a8c6000830187612d55565b613a996020830186612d55565b613aa66040830185612f63565b613ab36060830184612be4565b95945050505050565b7f436f756e7465723a2064656372656d656e74206f766572666c6f770000000000600082015250565b6000613af2601b83612c19565b9150613afd82613abc565b602082019050919050565b60006020820190508181036000830152613b2181613ae5565b9050919050565b600081519050919050565b600082825260208201905092915050565b6000613b4f82613b28565b613b598185613b33565b9350613b69818560208601612c2a565b613b7281612c54565b840191505092915050565b6000608082019050613b926000830187612d55565b613b9f6020830186612d55565b613bac6040830185612f63565b8181036060830152613bbe8184613b44565b905095945050505050565b600081519050613bd881612b7f565b92915050565b600060208284031215613bf457613bf3612b49565b5b6000613c0284828501613bc9565b91505092915050565b6000604082019050613c206000830185612d55565b613c2d6020830184612f63565b9392505050565b7f4e487b7100000000000000000000000000000000000000000000000000000000600052601260045260246000fdfea26469706673582212205588637cc33eca40b4cb236a2631bc1098ce1716ef695be37a6d4b875f1d71c064736f6c634300081c0033",
  "linkReferences": {},
  "deployedLinkReferences": {}
}