{
  "_format": "hh-sol-artifact-1",
  "contractName": "NFTMarketplace",
  "sourceName": "contracts/NFTMarketplace.sol",
  "abi": [
    {
      "inputs": [],
      "stateMutability": "nonpayable",
      "type": "constructor"
    },
    {
      "inputs": [
        {
          "internalType": "address",
          "name": "sender",
          "type": "address"
        },
        {
          "internalType": "uint256",
          "name": "tokenId",
          "type": "uint256"
        },
        {
          "internalType": "address",
          "name": "owner",
          "type": "address"
        }
      ],
      "name": "ERC721IncorrectOwner",
      "type": "error"
    },
    {
      "inputs": [
        {
          "internalType": "address",
          "name": "operator",
          "type": "address"
        },
        {
          "internalType": "uint256",
          "name": "tokenId",
          "type": "uint256"
        }
      ],
      "name": "ERC721InsufficientApproval",
      "type": "error"
    },
    {
      "inputs": [
        {
          "internalType": "address",
          "name": "approver",
          "type": "address"
        }
      ],
      "name": "ERC721InvalidApprover",
      "type": "error"
    },
    {
      "inputs": [
        {
          "internalType": "address",
          "name": "operator",
          "type": "address"
        }
      ],
      "name": "ERC721InvalidOperator",
      "type": "error"
    },
    {
      "inputs": [
        {
          "internalType": "address",
          "name": "owner",
          "type": "address"
        }
      ],
      "name": "ERC721InvalidOwner",
      "type": "error"
    },
    {
      "inputs": [
        {
          "internalType": "address",
          "name": "receiver",
          "type": "address"
        }
      ],
      "name": "ERC721InvalidReceiver",
      "type": "error"
    },
    {
      "inputs": [
        {
          "internalType": "address",
          "name": "sender",
          "type": "address"
        }
      ],
      "name": "ERC721InvalidSender",
      "type": "error"
    },
    {
      "inputs": [
        {
          "internalType": "uint256",
          "name": "tokenId",
          "type": "uint256"
        }
      ],
      "name": "ERC721NonexistentToken",
      "type": "error"
    },
    {
      "anonymous": false,
      "inputs": [
        {
          "indexed": true,
          "internalType": "address",
          "name": "owner",
          "type": "address"
        },
        {
          "indexed": true,
          "internalType": "address",
          "name": "approved",
          "type": "address"
        },
        {
          "indexed": true,
          "internalType": "uint256",
          "name": "tokenId",
          "type": "uint256"
        }
      ],
      "name": "Approval",
      "type": "event"
    },
    {
      "anonymous": false,
      "inputs": [
        {
          "indexed": true,
          "internalType": "address",
          "name": "owner",
          "type": "address"
        },
        {
          "indexed": true,
          "internalType": "address",
          "name": "operator",
          "type": "address"
        },
        {
          "indexed": false,
          "internalType": "bool",
          "name": "approved",
          "type": "bool"
        }
      ],
      "name": "ApprovalForAll",
      "type": "event"
    },
    {
      "anonymous": false,
      "inputs": [
        {
          "indexed": false,
          "internalType": "uint256",
          "name": "_fromTokenId",
          "type": "uint256"
        },
        {
          "indexed": false,
          "internalType": "uint256",
          "name": "_toTokenId",
          "type": "uint256"
        }
      ],
      "name": "BatchMetadataUpdate",
      "type": "event"
    },
    {
      "anonymous": false,
      "inputs": [
        {
          "indexed": true,
          "internalType": "address",
          "name": "bidder",
          "type": "address"
        },
        {
          "indexed": true,
          "internalType": "uint256",
          "name": "tokenId",
          "type": "uint256"
        },
        {
          "indexed": false,
          "internalType": "uint256",
          "name": "amount",
          "type": "uint256"
        }
      ],
      "name": "BidPlaced",
      "type": "event"
    },
    {
      "anonymous": false,
      "inputs": [
        {
          "indexed": true,
          "internalType": "uint256",
          "name": "tokenId",
          "type": "uint256"
        },
        {
          "indexed": false,
          "internalType": "address",
          "name": "seller",
          "type": "address"
        },
        {
          "indexed": false,
          "internalType": "address",
          "name": "owner",
          "type": "address"
        },
        {
          "indexed": false,
          "internalType": "uint256",
          "name": "price",
          "type": "uint256"
        },
        {
          "indexed": false,
          "internalType": "bool",
          "name": "sold",
          "type": "bool"
        }
      ],
      "name": "MarketItemCreated",
      "type": "event"
    },
    {
      "anonymous": false,
      "inputs": [
        {
          "indexed": false,
          "internalType": "uint256",
          "name": "_tokenId",
          "type": "uint256"
        }
      ],
      "name": "MetadataUpdate",
      "type": "event"
    },
    {
      "anonymous": false,
      "inputs": [
        {
          "indexed": true,
          "internalType": "address",
          "name": "from",
          "type": "address"
        },
        {
          "indexed": true,
          "internalType": "address",
          "name": "to",
          "type": "address"
        },
        {
          "indexed": true,
          "internalType": "uint256",
          "name": "tokenId",
          "type": "uint256"
        }
      ],
      "name": "Transfer",
      "type": "event"
    },
    {
      "inputs": [
        {
          "internalType": "address",
          "name": "to",
          "type": "address"
        },
        {
          "internalType": "uint256",
          "name": "tokenId",
          "type": "uint256"
        }
      ],
      "name": "approve",
      "outputs": [],
      "stateMutability": "nonpayable",
      "type": "function"
    },
    {
      "inputs": [
        {
          "internalType": "address",
          "name": "owner",
          "type": "address"
        }
      ],
      "name": "balanceOf",
      "outputs": [
        {
          "internalType": "uint256",
          "name": "",
          "type": "uint256"
        }
      ],
      "stateMutability": "view",
      "type": "function"
    },
    {
      "inputs": [
        {
          "internalType": "uint256",
          "name": "tokenId",
          "type": "uint256"
        }
      ],
      "name": "createMarketSale",
      "outputs": [],
      "stateMutability": "payable",
      "type": "function"
    },
    {
      "inputs": [
        {
          "internalType": "string",
          "name": "tokenURI",
          "type": "string"
        },
        {
          "internalType": "uint256",
          "name": "price",
          "type": "uint256"
        }
      ],
      "name": "createToken",
      "outputs": [
        {
          "internalType": "uint256",
          "name": "",
          "type": "uint256"
        }
      ],
      "stateMutability": "payable",
      "type": "function"
    },
    {
      "inputs": [],
      "name": "fetchItemsListed",
      "outputs": [
        {
          "components": [
            {
              "internalType": "uint256",
              "name": "tokenId",
              "type": "uint256"
            },
            {
              "internalType": "address payable",
              "name": "seller",
              "type": "address"
            },
            {
              "internalType": "address payable",
              "name": "owner",
              "type": "address"
            },
            {
              "internalType": "uint256",
              "name": "price",
              "type": "uint256"
            },
            {
              "internalType": "bool",
              "name": "sold",
              "type": "bool"
            }
          ],
          "internalType": "struct NFTMarketplace.MarketItem[]",
          "name": "",
          "type": "tuple[]"
        }
      ],
      "stateMutability": "view",
      "type": "function"
    },
    {
      "inputs": [],
      "name": "fetchMarketItems",
      "outputs": [
        {
          "components": [
            {
              "internalType": "uint256",
              "name": "tokenId",
              "type": "uint256"
            },
            {
              "internalType": "address payable",
              "name": "seller",
              "type": "address"
            },
            {
              "internalType": "address payable",
              "name": "owner",
              "type": "address"
            },
            {
              "internalType": "uint256",
              "name": "price",
              "type": "uint256"
            },
            {
              "internalType": "bool",
              "name": "sold",
              "type": "bool"
            }
          ],
          "internalType": "struct NFTMarketplace.MarketItem[]",
          "name": "",
          "type": "tuple[]"
        }
      ],
      "stateMutability": "view",
      "type": "function"
    },
    {
      "inputs": [],
      "name": "fetchMyNFTs",
      "outputs": [
        {
          "components": [
            {
              "internalType": "uint256",
              "name": "tokenId",
              "type": "uint256"
            },
            {
              "internalType": "address payable",
              "name": "seller",
              "type": "address"
            },
            {
              "internalType": "address payable",
              "name": "owner",
              "type": "address"
            },
            {
              "internalType": "uint256",
              "name": "price",
              "type": "uint256"
            },
            {
              "internalType": "bool",
              "name": "sold",
              "type": "bool"
            }
          ],
          "internalType": "struct NFTMarketplace.MarketItem[]",
          "name": "",
          "type": "tuple[]"
        }
      ],
      "stateMutability": "view",
      "type": "function"
    },
    {
      "inputs": [
        {
          "internalType": "uint256",
          "name": "tokenId",
          "type": "uint256"
        }
      ],
      "name": "getApproved",
      "outputs": [
        {
          "internalType": "address",
          "name": "",
          "type": "address"
        }
      ],
      "stateMutability": "view",
      "type": "function"
    },
    {
      "inputs": [
        {
          "internalType": "uint256",
          "name": "tokenId",
          "type": "uint256"
        }
      ],
      "name": "getBidHistory",
      "outputs": [
        {
          "components": [
            {
              "internalType": "address",
              "name": "bidder",
              "type": "address"
            },
            {
              "internalType": "uint256",
              "name": "amount",
              "type": "uint256"
            },
            {
              "internalType": "uint256",
              "name": "timestamp",
              "type": "uint256"
            }
          ],
          "internalType": "struct NFTMarketplace.Bid[]",
          "name": "",
          "type": "tuple[]"
        }
      ],
      "stateMutability": "view",
      "type": "function"
    },
    {
      "inputs": [],
      "name": "getListingPrice",
      "outputs": [
        {
          "internalType": "uint256",
          "name": "",
          "type": "uint256"
        }
      ],
      "stateMutability": "view",
      "type": "function"
    },
    {
      "inputs": [
        {
          "internalType": "address",
          "name": "owner",
          "type": "address"
        },
        {
          "internalType": "address",
          "name": "operator",
          "type": "address"
        }
      ],
      "name": "isApprovedForAll",
      "outputs": [
        {
          "internalType": "bool",
          "name": "",
          "type": "bool"
        }
      ],
      "stateMutability": "view",
      "type": "function"
    },
    {
      "inputs": [],
      "name": "listingPrice",
      "outputs": [
        {
          "internalType": "uint256",
          "name": "",
          "type": "uint256"
        }
      ],
      "stateMutability": "view",
      "type": "function"
    },
    {
      "inputs": [],
      "name": "name",
      "outputs": [
        {
          "internalType": "string",
          "name": "",
          "type": "string"
        }
      ],
      "stateMutability": "view",
      "type": "function"
    },
    {
      "inputs": [],
      "name": "owner",
      "outputs": [
        {
          "internalType": "address payable",
          "name": "",
          "type": "address"
        }
      ],
      "stateMutability": "view",
      "type": "function"
    },
    {
      "inputs": [
        {
          "internalType": "uint256",
          "name": "tokenId",
          "type": "uint256"
        }
      ],
      "name": "ownerOf",
      "outputs": [
        {
          "internalType": "address",
          "name": "",
          "type": "address"
        }
      ],
      "stateMutability": "view",
      "type": "function"
    },
    {
      "inputs": [
        {
          "internalType": "uint256",
          "name": "tokenId",
          "type": "uint256"
        }
      ],
      "name": "placeBid",
      "outputs": [],
      "stateMutability": "payable",
      "type": "function"
    },
    {
      "inputs": [
        {
          "internalType": "uint256",
          "name": "tokenId",
          "type": "uint256"
        },
        {
          "internalType": "uint256",
          "name": "price",
          "type": "uint256"
        }
      ],
      "name": "resellToken",
      "outputs": [],
      "stateMutability": "payable",
      "type": "function"
    },
    {
      "inputs": [
        {
          "internalType": "address",
          "name": "from",
          "type": "address"
        },
        {
          "internalType": "address",
          "name": "to",
          "type": "address"
        },
        {
          "internalType": "uint256",
          "name": "tokenId",
          "type": "uint256"
        }
      ],
      "name": "safeTransferFrom",
      "outputs": [],
      "stateMutability": "nonpayable",
      "type": "function"
    },
    {
      "inputs": [
        {
          "internalType": "address",
          "name": "from",
          "type": "address"
        },
        {
          "internalType": "address",
          "name": "to",
          "type": "address"
        },
        {
          "internalType": "uint256",
          "name": "tokenId",
          "type": "uint256"
        },
        {
          "internalType": "bytes",
          "name": "data",
          "type": "bytes"
        }
      ],
      "name": "safeTransferFrom",
      "outputs": [],
      "stateMutability": "nonpayable",
      "type": "function"
    },
    {
      "inputs": [
        {
          "internalType": "address",
          "name": "operator",
          "type": "address"
        },
        {
          "internalType": "bool",
          "name": "approved",
          "type": "bool"
        }
      ],
      "name": "setApprovalForAll",
      "outputs": [],
      "stateMutability": "nonpayable",
      "type": "function"
    },
    {
      "inputs": [
        {
          "internalType": "bytes4",
          "name": "interfaceId",
          "type": "bytes4"
        }
      ],
      "name": "supportsInterface",
      "outputs": [
        {
          "internalType": "bool",
          "name": "",
          "type": "bool"
        }
      ],
      "stateMutability": "view",
      "type": "function"
    },
    {
      "inputs": [],
      "name": "symbol",
      "outputs": [
        {
          "internalType": "string",
          "name": "",
          "type": "string"
        }
      ],
      "stateMutability": "view",
      "type": "function"
    },
    {
      "inputs": [
        {
          "internalType": "uint256",
          "name": "tokenId",
          "type": "uint256"
        }
      ],
      "name": "tokenURI",
      "outputs": [
        {
          "internalType": "string",
          "name": "",
          "type": "string"
        }
      ],
      "stateMutability": "view",
      "type": "function"
    },
    {
      "inputs": [
        {
          "internalType": "address",
          "name": "from",
          "type": "address"
        },
        {
          "internalType": "address",
          "name": "to",
          "type": "address"
        },
        {
          "internalType": "uint256",
          "name": "tokenId",
          "type": "uint256"
        }
      ],
      "name": "transferFrom",
      "outputs": [],
      "stateMutability": "nonpayable",
      "type": "function"
    },
    {
      "inputs": [
        {
          "internalType": "uint256",
          "name": "_listingPrice",
          "type": "uint256"
        }
      ],
      "name": "updateListingPrice",
      "outputs": [],
      "stateMutability": "nonpayable",
      "type": "function"
    }
  ],
  "bytecode": "0x60806040526658d15e1762800060095534801561001b57600080fd5b506040518060400160405280601081526020017f4d657461766572736520546f6b656e73000000000000000000000000000000008152506040518060400160405280600481526020017f4d4554540000000000000000000000000000000000000000000000000000000081525081600090816100979190610340565b5080600190816100a79190610340565b50505033600a60006101000a81548173ffffffffffffffffffffffffffffffffffffffff021916908373ffffffffffffffffffffffffffffffffffffffff160217905550610412565b600081519050919050565b7f4e487b7100000000000000000000000000000000000000000000000000000000600052604160045260246000fd5b7f4e487b7100000000000000000000000000000000000000000000000000000000600052602260045260246000fd5b6000600282049050600182168061017157607f821691505b6020821081036101845761018361012a565b5b50919050565b60008190508160005260206000209050919050565b60006020601f8301049050919050565b600082821b905092915050565b6000600883026101ec7fffffffffffffffffffffffffffffffffffffffffffffffffffffffffffffffff826101af565b6101f686836101af565b95508019841693508086168417925050509392505050565b6000819050919050565b6000819050919050565b600061023d6102386102338461020e565b610218565b61020e565b9050919050565b6000819050919050565b61025783610222565b61026b61026382610244565b8484546101bc565b825550505050565b600090565b610280610273565b61028b81848461024e565b505050565b5b818110156102af576102a4600082610278565b600181019050610291565b5050565b601f8211156102f4576102c58161018a565b6102ce8461019f565b810160208510156102dd578190505b6102f16102e98561019f565b830182610290565b50505b505050565b600082821c905092915050565b6000610317600019846008026102f9565b1980831691505092915050565b60006103308383610306565b9150826002028217905092915050565b610349826100f0565b67ffffffffffffffff811115610362576103616100fb565b5b61036c8254610159565b6103778282856102b3565b600060209050601f8311600181146103aa5760008415610398578287015190505b6103a28582610324565b86555061040a565b601f1984166103b88661018a565b60005b828110156103e0578489015182556001820191506020850194506020810190506103bb565b868310156103fd57848901516103f9601f891682610306565b8355505b6001600288020188555050505b505050505050565b61410b806104216000396000f3fe6080604052600436106101665760003560e01c806372b3b620116100d1578063b88d4fde1161008a578063c78f19f911610064578063c78f19f914610527578063c87b56dd14610552578063e219fc751461058f578063e985e9c5146105ab57610166565b8063b88d4fde146104a5578063be9af536146104ce578063c0738dce146104ea57610166565b806372b3b620146103b15780638da5cb5b146103e157806395d89b411461040c5780639979ef4514610437578063a22cb46514610453578063ae677aa31461047c57610166565b8063202e374011610123578063202e37401461028f57806323b872dd146102ba57806342842e0e146102e357806345f8fa801461030c5780636352211e1461033757806370a082311461037457610166565b806301ffc9a71461016b57806306fdde03146101a8578063081812fc146101d3578063095ea7b3146102105780630f08efe01461023957806312e8558514610264575b600080fd5b34801561017757600080fd5b50610192600480360381019061018d9190612e57565b6105e8565b60405161019f9190612e9f565b60405180910390f35b3480156101b457600080fd5b506101bd610649565b6040516101ca9190612f4a565b60405180910390f35b3480156101df57600080fd5b506101fa60048036038101906101f59190612fa2565b6106db565b6040516102079190613010565b60405180910390f35b34801561021c57600080fd5b5061023760048036038101906102329190613057565b6106f7565b005b34801561024557600080fd5b5061024e61070d565b60405161025b91906131ed565b60405180910390f35b34801561027057600080fd5b50610279610948565b604051610286919061321e565b60405180910390f35b34801561029b57600080fd5b506102a4610952565b6040516102b191906131ed565b60405180910390f35b3480156102c657600080fd5b506102e160048036038101906102dc9190613239565b610c0f565b005b3480156102ef57600080fd5b5061030a60048036038101906103059190613239565b610d11565b005b34801561031857600080fd5b50610321610d31565b60405161032e91906131ed565b60405180910390f35b34801561034357600080fd5b5061035e60048036038101906103599190612fa2565b610fee565b60405161036b9190613010565b60405180910390f35b34801561038057600080fd5b5061039b6004803603810190610396919061328c565b611000565b6040516103a8919061321e565b60405180910390f35b6103cb60048036038101906103c691906133ee565b6110ba565b6040516103d8919061321e565b60405180910390f35b3480156103ed57600080fd5b506103f66110fc565b6040516104039190613459565b60405180910390f35b34801561041857600080fd5b50610421611122565b60405161042e9190612f4a565b60405180910390f35b610451600480360381019061044c9190612fa2565b6111b4565b005b34801561045f57600080fd5b5061047a600480360381019061047591906134a0565b6113bd565b005b34801561048857600080fd5b506104a3600480360381019061049e9190612fa2565b6113d3565b005b3480156104b157600080fd5b506104cc60048036038101906104c79190613581565b61146d565b005b6104e860048036038101906104e39190612fa2565b61148a565b005b3480156104f657600080fd5b50610511600480360381019061050c9190612fa2565b61167a565b60405161051e9190613704565b60405180910390f35b34801561053357600080fd5b5061053c611756565b604051610549919061321e565b60405180910390f35b34801561055e57600080fd5b5061057960048036038101906105749190612fa2565b61175c565b6040516105869190612f4a565b60405180910390f35b6105a960048036038101906105a49190613726565b61186f565b005b3480156105b757600080fd5b506105d260048036038101906105cd9190613766565b611a22565b6040516105df9190612e9f565b60405180910390f35b6000634906490660e01b7bffffffffffffffffffffffffffffffffffffffffffffffffffffffff1916827bffffffffffffffffffffffffffffffffffffffffffffffffffffffff19161480610642575061064182611ab6565b5b9050919050565b606060008054610658906137d5565b80601f0160208091040260200160405190810160405280929190818152602001828054610684906137d5565b80156106d15780601f106106a6576101008083540402835291602001916106d1565b820191906000526020600020905b8154815290600101906020018083116106b457829003601f168201915b5050505050905090565b60006106e682611b98565b506106f082611c20565b9050919050565b6107098282610704611c5d565b611c65565b5050565b6060600061071b6007611c77565b905060006107296008611c77565b826107349190613835565b90506000808267ffffffffffffffff811115610753576107526132c3565b5b60405190808252806020026020018201604052801561078c57816020015b610779612d8e565b8152602001906001900390816107715790505b5090506000600190505b84811161093d573073ffffffffffffffffffffffffffffffffffffffff16600c600083815260200190815260200160002060020160009054906101000a900473ffffffffffffffffffffffffffffffffffffffff1673ffffffffffffffffffffffffffffffffffffffff160361092a57600c60008281526020019081526020016000206040518060a0016040529081600082015481526020016001820160009054906101000a900473ffffffffffffffffffffffffffffffffffffffff1673ffffffffffffffffffffffffffffffffffffffff1673ffffffffffffffffffffffffffffffffffffffff1681526020016002820160009054906101000a900473ffffffffffffffffffffffffffffffffffffffff1673ffffffffffffffffffffffffffffffffffffffff1673ffffffffffffffffffffffffffffffffffffffff168152602001600382015481526020016004820160009054906101000a900460ff16151515158152505082848061090b90613869565b95508151811061091e5761091d6138b1565b5b60200260200101819052505b808061093590613869565b915050610796565b508094505050505090565b6000600954905090565b606060006109606007611c77565b9050600080600190505b8281116109fc573373ffffffffffffffffffffffffffffffffffffffff16600c600083815260200190815260200160002060020160009054906101000a900473ffffffffffffffffffffffffffffffffffffffff1673ffffffffffffffffffffffffffffffffffffffff16036109e95781806109e590613869565b9250505b80806109f490613869565b91505061096a565b5060008167ffffffffffffffff811115610a1957610a186132c3565b5b604051908082528060200260200182016040528015610a5257816020015b610a3f612d8e565b815260200190600190039081610a375790505b509050600080600190505b848111610c04573373ffffffffffffffffffffffffffffffffffffffff16600c600083815260200190815260200160002060020160009054906101000a900473ffffffffffffffffffffffffffffffffffffffff1673ffffffffffffffffffffffffffffffffffffffff1603610bf157600c60008281526020019081526020016000206040518060a0016040529081600082015481526020016001820160009054906101000a900473ffffffffffffffffffffffffffffffffffffffff1673ffffffffffffffffffffffffffffffffffffffff1673ffffffffffffffffffffffffffffffffffffffff1681526020016002820160009054906101000a900473ffffffffffffffffffffffffffffffffffffffff1673ffffffffffffffffffffffffffffffffffffffff1673ffffffffffffffffffffffffffffffffffffffff168152602001600382015481526020016004820160009054906101000a900460ff161515151581525050838380610bd290613869565b945081518110610be557610be46138b1565b5b60200260200101819052505b8080610bfc90613869565b915050610a5d565b508194505050505090565b600073ffffffffffffffffffffffffffffffffffffffff168273ffffffffffffffffffffffffffffffffffffffff1603610c815760006040517f64a0ae92000000000000000000000000000000000000000000000000000000008152600401610c789190613010565b60405180910390fd5b6000610c958383610c90611c5d565b611c85565b90508373ffffffffffffffffffffffffffffffffffffffff168173ffffffffffffffffffffffffffffffffffffffff1614610d0b578382826040517f64283d7b000000000000000000000000000000000000000000000000000000008152600401610d02939291906138e0565b60405180910390fd5b50505050565b610d2c8383836040518060200160405280600081525061146d565b505050565b60606000610d3f6007611c77565b9050600080600190505b828111610ddb573373ffffffffffffffffffffffffffffffffffffffff16600c600083815260200190815260200160002060010160009054906101000a900473ffffffffffffffffffffffffffffffffffffffff1673ffffffffffffffffffffffffffffffffffffffff1603610dc8578180610dc490613869565b9250505b8080610dd390613869565b915050610d49565b5060008167ffffffffffffffff811115610df857610df76132c3565b5b604051908082528060200260200182016040528015610e3157816020015b610e1e612d8e565b815260200190600190039081610e165790505b509050600080600190505b848111610fe3573373ffffffffffffffffffffffffffffffffffffffff16600c600083815260200190815260200160002060010160009054906101000a900473ffffffffffffffffffffffffffffffffffffffff1673ffffffffffffffffffffffffffffffffffffffff1603610fd057600c60008281526020019081526020016000206040518060a0016040529081600082015481526020016001820160009054906101000a900473ffffffffffffffffffffffffffffffffffffffff1673ffffffffffffffffffffffffffffffffffffffff1673ffffffffffffffffffffffffffffffffffffffff1681526020016002820160009054906101000a900473ffffffffffffffffffffffffffffffffffffffff1673ffffffffffffffffffffffffffffffffffffffff1673ffffffffffffffffffffffffffffffffffffffff168152602001600382015481526020016004820160009054906101000a900460ff161515151581525050838380610fb190613869565b945081518110610fc457610fc36138b1565b5b60200260200101819052505b8080610fdb90613869565b915050610e3c565b508194505050505090565b6000610ff982611b98565b9050919050565b60008073ffffffffffffffffffffffffffffffffffffffff168273ffffffffffffffffffffffffffffffffffffffff16036110735760006040517f89c62b6400000000000000000000000000000000000000000000000000000000815260040161106a9190613010565b60405180910390fd5b600360008373ffffffffffffffffffffffffffffffffffffffff1673ffffffffffffffffffffffffffffffffffffffff168152602001908152602001600020549050919050565b60006110c66007611e9f565b60006110d26007611c77565b90506110de3382611eb5565b6110e88185611fae565b6110f2818461200a565b8091505092915050565b600a60009054906101000a900473ffffffffffffffffffffffffffffffffffffffff1681565b606060018054611131906137d5565b80601f016020809104026020016040519081016040528092919081815260200182805461115d906137d5565b80156111aa5780601f1061117f576101008083540402835291602001916111aa565b820191906000526020600020905b81548152906001019060200180831161118d57829003601f168201915b5050505050905090565b6000600c600083815260200190815260200160002090503073ffffffffffffffffffffffffffffffffffffffff168160020160009054906101000a900473ffffffffffffffffffffffffffffffffffffffff1673ffffffffffffffffffffffffffffffffffffffff161461125d576040517f08c379a000000000000000000000000000000000000000000000000000000000815260040161125490613963565b60405180910390fd5b600034116112a0576040517f08c379a0000000000000000000000000000000000000000000000000000000008152600401611297906139cf565b60405180910390fd5b600b600083815260200190815260200160002060405180606001604052803373ffffffffffffffffffffffffffffffffffffffff16815260200134815260200142815250908060018154018082558091505060019003906000526020600020906003020160009091909190915060008201518160000160006101000a81548173ffffffffffffffffffffffffffffffffffffffff021916908373ffffffffffffffffffffffffffffffffffffffff16021790555060208201518160010155604082015181600201555050813373ffffffffffffffffffffffffffffffffffffffff167fdf8644c0a4c21ed214ce69f395675b3a5fcd1039083daea5058898de40ea3149346040516113b1919061321e565b60405180910390a35050565b6113cf6113c8611c5d565b838361220d565b5050565b600a60009054906101000a900473ffffffffffffffffffffffffffffffffffffffff1673ffffffffffffffffffffffffffffffffffffffff163373ffffffffffffffffffffffffffffffffffffffff1614611463576040517f08c379a000000000000000000000000000000000000000000000000000000000815260040161145a90613a3b565b60405180910390fd5b8060098190555050565b611478848484610c0f565b6114848484848461237c565b50505050565b6000600c60008381526020019081526020016000209050806003015434146114e7576040517f08c379a00000000000000000000000000000000000000000000000000000000081526004016114de90613aa7565b60405180910390fd5b338160020160006101000a81548173ffffffffffffffffffffffffffffffffffffffff021916908373ffffffffffffffffffffffffffffffffffffffff16021790555060018160040160006101000a81548160ff02191690831515021790555060008160010160006101000a81548173ffffffffffffffffffffffffffffffffffffffff021916908373ffffffffffffffffffffffffffffffffffffffff1602179055506115956008611e9f565b6115a0303384612533565b600a60009054906101000a900473ffffffffffffffffffffffffffffffffffffffff1673ffffffffffffffffffffffffffffffffffffffff166108fc6009549081150290604051600060405180830381858888f1935050505015801561160a573d6000803e3d6000fd5b508060010160009054906101000a900473ffffffffffffffffffffffffffffffffffffffff1673ffffffffffffffffffffffffffffffffffffffff166108fc349081150290604051600060405180830381858888f19350505050158015611675573d6000803e3d6000fd5b505050565b6060600b6000838152602001908152602001600020805480602002602001604051908101604052809291908181526020016000905b8282101561174b57838290600052602060002090600302016040518060600160405290816000820160009054906101000a900473ffffffffffffffffffffffffffffffffffffffff1673ffffffffffffffffffffffffffffffffffffffff1673ffffffffffffffffffffffffffffffffffffffff16815260200160018201548152602001600282015481525050815260200190600101906116af565b505050509050919050565b60095481565b606061176782611b98565b506000600660008481526020019081526020016000208054611788906137d5565b80601f01602080910402602001604051908101604052809291908181526020018280546117b4906137d5565b80156118015780601f106117d657610100808354040283529160200191611801565b820191906000526020600020905b8154815290600101906020018083116117e457829003601f168201915b5050505050905060006118126126a0565b9050600081510361182757819250505061186a565b60008251111561185c578082604051602001611844929190613b03565b6040516020818303038152906040529250505061186a565b611865846126b7565b925050505b919050565b6000600c600084815260200190815260200160002090503373ffffffffffffffffffffffffffffffffffffffff168160020160009054906101000a900473ffffffffffffffffffffffffffffffffffffffff1673ffffffffffffffffffffffffffffffffffffffff1614611918576040517f08c379a000000000000000000000000000000000000000000000000000000000815260040161190f90613b73565b60405180910390fd5b600954341461195c576040517f08c379a000000000000000000000000000000000000000000000000000000000815260040161195390613bdf565b60405180910390fd5b60008160040160006101000a81548160ff021916908315150217905550818160030181905550338160010160006101000a81548173ffffffffffffffffffffffffffffffffffffffff021916908373ffffffffffffffffffffffffffffffffffffffff160217905550308160020160006101000a81548173ffffffffffffffffffffffffffffffffffffffff021916908373ffffffffffffffffffffffffffffffffffffffff160217905550611a126008612720565b611a1d333085612533565b505050565b6000600560008473ffffffffffffffffffffffffffffffffffffffff1673ffffffffffffffffffffffffffffffffffffffff16815260200190815260200160002060008373ffffffffffffffffffffffffffffffffffffffff1673ffffffffffffffffffffffffffffffffffffffff16815260200190815260200160002060009054906101000a900460ff16905092915050565b60007f80ac58cd000000000000000000000000000000000000000000000000000000007bffffffffffffffffffffffffffffffffffffffffffffffffffffffff1916827bffffffffffffffffffffffffffffffffffffffffffffffffffffffff19161480611b8157507f5b5e139f000000000000000000000000000000000000000000000000000000007bffffffffffffffffffffffffffffffffffffffffffffffffffffffff1916827bffffffffffffffffffffffffffffffffffffffffffffffffffffffff1916145b80611b915750611b908261277c565b5b9050919050565b600080611ba4836127e6565b9050600073ffffffffffffffffffffffffffffffffffffffff168173ffffffffffffffffffffffffffffffffffffffff1603611c1757826040517f7e273289000000000000000000000000000000000000000000000000000000008152600401611c0e919061321e565b60405180910390fd5b80915050919050565b60006004600083815260200190815260200160002060009054906101000a900473ffffffffffffffffffffffffffffffffffffffff169050919050565b600033905090565b611c728383836001612823565b505050565b600081600001549050919050565b600080611c91846127e6565b9050600073ffffffffffffffffffffffffffffffffffffffff168373ffffffffffffffffffffffffffffffffffffffff1614611cd357611cd28184866129e8565b5b600073ffffffffffffffffffffffffffffffffffffffff168173ffffffffffffffffffffffffffffffffffffffff1614611d6457611d15600085600080612823565b6001600360008373ffffffffffffffffffffffffffffffffffffffff1673ffffffffffffffffffffffffffffffffffffffff168152602001908152602001600020600082825403925050819055505b600073ffffffffffffffffffffffffffffffffffffffff168573ffffffffffffffffffffffffffffffffffffffff1614611de7576001600360008773ffffffffffffffffffffffffffffffffffffffff1673ffffffffffffffffffffffffffffffffffffffff168152602001908152602001600020600082825401925050819055505b846002600086815260200190815260200160002060006101000a81548173ffffffffffffffffffffffffffffffffffffffff021916908373ffffffffffffffffffffffffffffffffffffffff160217905550838573ffffffffffffffffffffffffffffffffffffffff168273ffffffffffffffffffffffffffffffffffffffff167fddf252ad1be2c89b69c2b068fc378daa952ba7f163c4a11628f55a4df523b3ef60405160405180910390a4809150509392505050565b6001816000016000828254019250508190555050565b600073ffffffffffffffffffffffffffffffffffffffff168273ffffffffffffffffffffffffffffffffffffffff1603611f275760006040517f64a0ae92000000000000000000000000000000000000000000000000000000008152600401611f1e9190613010565b60405180910390fd5b6000611f3583836000611c85565b9050600073ffffffffffffffffffffffffffffffffffffffff168173ffffffffffffffffffffffffffffffffffffffff1614611fa95760006040517f73c6ac6e000000000000000000000000000000000000000000000000000000008152600401611fa09190613010565b60405180910390fd5b505050565b80600660008481526020019081526020016000209081611fce9190613dab565b507ff8e1a15aba9398e019f0b49df1a4fde98ee17ae345cb5f6b5e2c27f5033e8ce782604051611ffe919061321e565b60405180910390a15050565b6000811161204d576040517f08c379a000000000000000000000000000000000000000000000000000000000815260040161204490613ec9565b60405180910390fd5b6009543414612091576040517f08c379a000000000000000000000000000000000000000000000000000000000815260040161208890613bdf565b60405180910390fd5b6040518060a001604052808381526020013373ffffffffffffffffffffffffffffffffffffffff1681526020013073ffffffffffffffffffffffffffffffffffffffff16815260200182815260200160001515815250600c60008481526020019081526020016000206000820151816000015560208201518160010160006101000a81548173ffffffffffffffffffffffffffffffffffffffff021916908373ffffffffffffffffffffffffffffffffffffffff16021790555060408201518160020160006101000a81548173ffffffffffffffffffffffffffffffffffffffff021916908373ffffffffffffffffffffffffffffffffffffffff1602179055506060820151816003015560808201518160040160006101000a81548160ff0219169083151502179055509050506121ca333084612533565b817fb640004f1d14576d0c209e240cad0410e0d8c0c33a09375861fbadae2588a98d33308460006040516122019493929190613ee9565b60405180910390a25050565b600073ffffffffffffffffffffffffffffffffffffffff168273ffffffffffffffffffffffffffffffffffffffff160361227e57816040517f5b08ba180000000000000000000000000000000000000000000000000000000081526004016122759190613010565b60405180910390fd5b80600560008573ffffffffffffffffffffffffffffffffffffffff1673ffffffffffffffffffffffffffffffffffffffff16815260200190815260200160002060008473ffffffffffffffffffffffffffffffffffffffff1673ffffffffffffffffffffffffffffffffffffffff16815260200190815260200160002060006101000a81548160ff0219169083151502179055508173ffffffffffffffffffffffffffffffffffffffff168373ffffffffffffffffffffffffffffffffffffffff167f17307eab39ab6107e8899845ad3d59bd9653f200f220920489ca2b5937696c318360405161236f9190612e9f565b60405180910390a3505050565b60008373ffffffffffffffffffffffffffffffffffffffff163b111561252d578273ffffffffffffffffffffffffffffffffffffffff1663150b7a026123c0611c5d565b8685856040518563ffffffff1660e01b81526004016123e29493929190613f83565b6020604051808303816000875af192505050801561241e57506040513d601f19601f8201168201806040525081019061241b9190613fe4565b60015b6124a2573d806000811461244e576040519150601f19603f3d011682016040523d82523d6000602084013e612453565b606091505b50600081510361249a57836040517f64a0ae920000000000000000000000000000000000000000000000000000000081526004016124919190613010565b60405180910390fd5b805181602001fd5b63150b7a0260e01b7bffffffffffffffffffffffffffffffffffffffffffffffffffffffff1916817bffffffffffffffffffffffffffffffffffffffffffffffffffffffff19161461252b57836040517f64a0ae920000000000000000000000000000000000000000000000000000000081526004016125229190613010565b60405180910390fd5b505b50505050565b600073ffffffffffffffffffffffffffffffffffffffff168273ffffffffffffffffffffffffffffffffffffffff16036125a55760006040517f64a0ae9200000000000000000000000000000000000000000000000000000000815260040161259c9190613010565b60405180910390fd5b60006125b383836000611c85565b9050600073ffffffffffffffffffffffffffffffffffffffff168173ffffffffffffffffffffffffffffffffffffffff160361262657816040517f7e27328900000000000000000000000000000000000000000000000000000000815260040161261d919061321e565b60405180910390fd5b8373ffffffffffffffffffffffffffffffffffffffff168173ffffffffffffffffffffffffffffffffffffffff161461269a578382826040517f64283d7b000000000000000000000000000000000000000000000000000000008152600401612691939291906138e0565b60405180910390fd5b50505050565b606060405180602001604052806000815250905090565b60606126c282611b98565b5060006126cd6126a0565b905060008151116126ed5760405180602001604052806000815250612718565b806126f784612aac565b604051602001612708929190613b03565b6040516020818303038152906040525b915050919050565b6000816000015490506000811161276c576040517f08c379a00000000000000000000000000000000000000000000000000000000081526004016127639061405d565b60405180910390fd5b6001810382600001819055505050565b60007f01ffc9a7000000000000000000000000000000000000000000000000000000007bffffffffffffffffffffffffffffffffffffffffffffffffffffffff1916827bffffffffffffffffffffffffffffffffffffffffffffffffffffffff1916149050919050565b60006002600083815260200190815260200160002060009054906101000a900473ffffffffffffffffffffffffffffffffffffffff169050919050565b808061285c5750600073ffffffffffffffffffffffffffffffffffffffff168273ffffffffffffffffffffffffffffffffffffffff1614155b1561299057600061286c84611b98565b9050600073ffffffffffffffffffffffffffffffffffffffff168373ffffffffffffffffffffffffffffffffffffffff16141580156128d757508273ffffffffffffffffffffffffffffffffffffffff168173ffffffffffffffffffffffffffffffffffffffff1614155b80156128ea57506128e88184611a22565b155b1561292c57826040517fa9fbf51f0000000000000000000000000000000000000000000000000000000081526004016129239190613010565b60405180910390fd5b811561298e57838573ffffffffffffffffffffffffffffffffffffffff168273ffffffffffffffffffffffffffffffffffffffff167f8c5be1e5ebec7d5bd14f71427d1e84f3dd0314c0f7b2291e5b200ac8c7c3b92560405160405180910390a45b505b836004600085815260200190815260200160002060006101000a81548173ffffffffffffffffffffffffffffffffffffffff021916908373ffffffffffffffffffffffffffffffffffffffff16021790555050505050565b6129f3838383612b7a565b612aa757600073ffffffffffffffffffffffffffffffffffffffff168373ffffffffffffffffffffffffffffffffffffffff1603612a6857806040517f7e273289000000000000000000000000000000000000000000000000000000008152600401612a5f919061321e565b60405180910390fd5b81816040517f177e802f000000000000000000000000000000000000000000000000000000008152600401612a9e92919061407d565b60405180910390fd5b505050565b606060006001612abb84612c3b565b01905060008167ffffffffffffffff811115612ada57612ad96132c3565b5b6040519080825280601f01601f191660200182016040528015612b0c5781602001600182028036833780820191505090505b509050600082602001820190505b600115612b6f578080600190039150507f3031323334353637383961626364656600000000000000000000000000000000600a86061a8153600a8581612b6357612b626140a6565b5b04945060008503612b1a575b819350505050919050565b60008073ffffffffffffffffffffffffffffffffffffffff168373ffffffffffffffffffffffffffffffffffffffff1614158015612c3257508273ffffffffffffffffffffffffffffffffffffffff168473ffffffffffffffffffffffffffffffffffffffff161480612bf35750612bf28484611a22565b5b80612c3157508273ffffffffffffffffffffffffffffffffffffffff16612c1983611c20565b73ffffffffffffffffffffffffffffffffffffffff16145b5b90509392505050565b600080600090507a184f03e93ff9f4daa797ed6e38ed64bf6a1f0100000000000000008310612c99577a184f03e93ff9f4daa797ed6e38ed64bf6a1f0100000000000000008381612c8f57612c8e6140a6565b5b0492506040810190505b6d04ee2d6d415b85acef81000000008310612cd6576d04ee2d6d415b85acef81000000008381612ccc57612ccb6140a6565b5b0492506020810190505b662386f26fc100008310612d0557662386f26fc100008381612cfb57612cfa6140a6565b5b0492506010810190505b6305f5e1008310612d2e576305f5e1008381612d2457612d236140a6565b5b0492506008810190505b6127108310612d53576127108381612d4957612d486140a6565b5b0492506004810190505b60648310612d765760648381612d6c57612d6b6140a6565b5b0492506002810190505b600a8310612d85576001810190505b80915050919050565b6040518060a0016040528060008152602001600073ffffffffffffffffffffffffffffffffffffffff168152602001600073ffffffffffffffffffffffffffffffffffffffff168152602001600081526020016000151581525090565b6000604051905090565b600080fd5b600080fd5b60007fffffffff0000000000000000000000000000000000000000000000000000000082169050919050565b612e3481612dff565b8114612e3f57600080fd5b50565b600081359050612e5181612e2b565b92915050565b600060208284031215612e6d57612e6c612df5565b5b6000612e7b84828501612e42565b91505092915050565b60008115159050919050565b612e9981612e84565b82525050565b6000602082019050612eb46000830184612e90565b92915050565b600081519050919050565b600082825260208201905092915050565b60005b83811015612ef4578082015181840152602081019050612ed9565b60008484015250505050565b6000601f19601f8301169050919050565b6000612f1c82612eba565b612f268185612ec5565b9350612f36818560208601612ed6565b612f3f81612f00565b840191505092915050565b60006020820190508181036000830152612f648184612f11565b905092915050565b6000819050919050565b612f7f81612f6c565b8114612f8a57600080fd5b50565b600081359050612f9c81612f76565b92915050565b600060208284031215612fb857612fb7612df5565b5b6000612fc684828501612f8d565b91505092915050565b600073ffffffffffffffffffffffffffffffffffffffff82169050919050565b6000612ffa82612fcf565b9050919050565b61300a81612fef565b82525050565b60006020820190506130256000830184613001565b92915050565b61303481612fef565b811461303f57600080fd5b50565b6000813590506130518161302b565b92915050565b6000806040838503121561306e5761306d612df5565b5b600061307c85828601613042565b925050602061308d85828601612f8d565b9150509250929050565b600081519050919050565b600082825260208201905092915050565b6000819050602082019050919050565b6130cc81612f6c565b82525050565b60006130dd82612fcf565b9050919050565b6130ed816130d2565b82525050565b6130fc81612e84565b82525050565b60a08201600082015161311860008501826130c3565b50602082015161312b60208501826130e4565b50604082015161313e60408501826130e4565b50606082015161315160608501826130c3565b50608082015161316460808501826130f3565b50505050565b60006131768383613102565b60a08301905092915050565b6000602082019050919050565b600061319a82613097565b6131a481856130a2565b93506131af836130b3565b8060005b838110156131e05781516131c7888261316a565b97506131d283613182565b9250506001810190506131b3565b5085935050505092915050565b60006020820190508181036000830152613207818461318f565b905092915050565b61321881612f6c565b82525050565b6000602082019050613233600083018461320f565b92915050565b60008060006060848603121561325257613251612df5565b5b600061326086828701613042565b935050602061327186828701613042565b925050604061328286828701612f8d565b9150509250925092565b6000602082840312156132a2576132a1612df5565b5b60006132b084828501613042565b91505092915050565b600080fd5b600080fd5b7f4e487b7100000000000000000000000000000000000000000000000000000000600052604160045260246000fd5b6132fb82612f00565b810181811067ffffffffffffffff8211171561331a576133196132c3565b5b80604052505050565b600061332d612deb565b905061333982826132f2565b919050565b600067ffffffffffffffff821115613359576133586132c3565b5b61336282612f00565b9050602081019050919050565b82818337600083830152505050565b600061339161338c8461333e565b613323565b9050828152602081018484840111156133ad576133ac6132be565b5b6133b884828561336f565b509392505050565b600082601f8301126133d5576133d46132b9565b5b81356133e584826020860161337e565b91505092915050565b6000806040838503121561340557613404612df5565b5b600083013567ffffffffffffffff81111561342357613422612dfa565b5b61342f858286016133c0565b925050602061344085828601612f8d565b9150509250929050565b613453816130d2565b82525050565b600060208201905061346e600083018461344a565b92915050565b61347d81612e84565b811461348857600080fd5b50565b60008135905061349a81613474565b92915050565b600080604083850312156134b7576134b6612df5565b5b60006134c585828601613042565b92505060206134d68582860161348b565b9150509250929050565b600067ffffffffffffffff8211156134fb576134fa6132c3565b5b61350482612f00565b9050602081019050919050565b600061352461351f846134e0565b613323565b9050828152602081018484840111156135405761353f6132be565b5b61354b84828561336f565b509392505050565b600082601f830112613568576135676132b9565b5b8135613578848260208601613511565b91505092915050565b6000806000806080858703121561359b5761359a612df5565b5b60006135a987828801613042565b94505060206135ba87828801613042565b93505060406135cb87828801612f8d565b925050606085013567ffffffffffffffff8111156135ec576135eb612dfa565b5b6135f887828801613553565b91505092959194509250565b600081519050919050565b600082825260208201905092915050565b6000819050602082019050919050565b61363981612fef565b82525050565b6060820160008201516136556000850182613630565b50602082015161366860208501826130c3565b50604082015161367b60408501826130c3565b50505050565b600061368d838361363f565b60608301905092915050565b6000602082019050919050565b60006136b182613604565b6136bb818561360f565b93506136c683613620565b8060005b838110156136f75781516136de8882613681565b97506136e983613699565b9250506001810190506136ca565b5085935050505092915050565b6000602082019050818103600083015261371e81846136a6565b905092915050565b6000806040838503121561373d5761373c612df5565b5b600061374b85828601612f8d565b925050602061375c85828601612f8d565b9150509250929050565b6000806040838503121561377d5761377c612df5565b5b600061378b85828601613042565b925050602061379c85828601613042565b9150509250929050565b7f4e487b7100000000000000000000000000000000000000000000000000000000600052602260045260246000fd5b600060028204905060018216806137ed57607f821691505b602082108103613800576137ff6137a6565b5b50919050565b7f4e487b7100000000000000000000000000000000000000000000000000000000600052601160045260246000fd5b600061384082612f6c565b915061384b83612f6c565b925082820390508181111561386357613862613806565b5b92915050565b600061387482612f6c565b91507fffffffffffffffffffffffffffffffffffffffffffffffffffffffffffffffff82036138a6576138a5613806565b5b600182019050919050565b7f4e487b7100000000000000000000000000000000000000000000000000000000600052603260045260246000fd5b60006060820190506138f56000830186613001565b613902602083018561320f565b61390f6040830184613001565b949350505050565b7f4974656d206e6f7420666f722073616c65000000000000000000000000000000600082015250565b600061394d601183612ec5565b915061395882613917565b602082019050919050565b6000602082019050818103600083015261397c81613940565b9050919050565b7f426964206d757374206265203e20300000000000000000000000000000000000600082015250565b60006139b9600f83612ec5565b91506139c482613983565b602082019050919050565b600060208201905081810360008301526139e8816139ac565b9050919050565b7f4f6e6c79206d61726b6574706c616365206f776e657200000000000000000000600082015250565b6000613a25601683612ec5565b9150613a30826139ef565b602082019050919050565b60006020820190508181036000830152613a5481613a18565b9050919050565b7f53656e642061736b696e67207072696365000000000000000000000000000000600082015250565b6000613a91601183612ec5565b9150613a9c82613a5b565b602082019050919050565b60006020820190508181036000830152613ac081613a84565b9050919050565b600081905092915050565b6000613add82612eba565b613ae78185613ac7565b9350613af7818560208601612ed6565b80840191505092915050565b6000613b0f8285613ad2565b9150613b1b8284613ad2565b91508190509392505050565b7f4e6f74206974656d206f776e6572000000000000000000000000000000000000600082015250565b6000613b5d600e83612ec5565b9150613b6882613b27565b602082019050919050565b60006020820190508181036000830152613b8c81613b50565b9050919050565b7f53656e64206c697374696e672070726963650000000000000000000000000000600082015250565b6000613bc9601283612ec5565b9150613bd482613b93565b602082019050919050565b60006020820190508181036000830152613bf881613bbc565b9050919050565b60008190508160005260206000209050919050565b60006020601f8301049050919050565b600082821b905092915050565b600060088302613c617fffffffffffffffffffffffffffffffffffffffffffffffffffffffffffffffff82613c24565b613c6b8683613c24565b95508019841693508086168417925050509392505050565b6000819050919050565b6000613ca8613ca3613c9e84612f6c565b613c83565b612f6c565b9050919050565b6000819050919050565b613cc283613c8d565b613cd6613cce82613caf565b848454613c31565b825550505050565b600090565b613ceb613cde565b613cf6818484613cb9565b505050565b5b81811015613d1a57613d0f600082613ce3565b600181019050613cfc565b5050565b601f821115613d5f57613d3081613bff565b613d3984613c14565b81016020851015613d48578190505b613d5c613d5485613c14565b830182613cfb565b50505b505050565b600082821c905092915050565b6000613d8260001984600802613d64565b1980831691505092915050565b6000613d9b8383613d71565b9150826002028217905092915050565b613db482612eba565b67ffffffffffffffff811115613dcd57613dcc6132c3565b5b613dd782546137d5565b613de2828285613d1e565b600060209050601f831160018114613e155760008415613e03578287015190505b613e0d8582613d8f565b865550613e75565b601f198416613e2386613bff565b60005b82811015613e4b57848901518255600182019150602085019450602081019050613e26565b86831015613e685784890151613e64601f891682613d71565b8355505b6001600288020188555050505b505050505050565b7f5072696365203e20300000000000000000000000000000000000000000000000600082015250565b6000613eb3600983612ec5565b9150613ebe82613e7d565b602082019050919050565b60006020820190508181036000830152613ee281613ea6565b9050919050565b6000608082019050613efe6000830187613001565b613f0b6020830186613001565b613f18604083018561320f565b613f256060830184612e90565b95945050505050565b600081519050919050565b600082825260208201905092915050565b6000613f5582613f2e565b613f5f8185613f39565b9350613f6f818560208601612ed6565b613f7881612f00565b840191505092915050565b6000608082019050613f986000830187613001565b613fa56020830186613001565b613fb2604083018561320f565b8181036060830152613fc48184613f4a565b905095945050505050565b600081519050613fde81612e2b565b92915050565b600060208284031215613ffa57613ff9612df5565b5b600061400884828501613fcf565b91505092915050565b7f436f756e7465723a2064656372656d656e74206f766572666c6f770000000000600082015250565b6000614047601b83612ec5565b915061405282614011565b602082019050919050565b600060208201905081810360008301526140768161403a565b9050919050565b60006040820190506140926000830185613001565b61409f602083018461320f565b9392505050565b7f4e487b7100000000000000000000000000000000000000000000000000000000600052601260045260246000fdfea26469706673582212200930328d68bf9f8fdbf07270622e87bdadfffec6286ebf5c6d60e7700e56c8e964736f6c634300081c0033",
  "linkReferences": {},
  "deployedLinkReferences": {}
}